{
  "contractName": "HalfMoneyCashback",
  "abi": [
    {
      "constant": true,
      "inputs": [],
      "name": "cashback",
      "outputs": [
        {
          "name": "",
          "type": "uint256"
        }
      ],
      "payable": false,
      "stateMutability": "view",
      "type": "function"
    },
    {
      "constant": true,
      "inputs": [],
      "name": "received",
      "outputs": [
        {
          "name": "",
          "type": "uint256"
        }
      ],
      "payable": false,
      "stateMutability": "view",
      "type": "function"
    },
    {
      "constant": false,
      "inputs": [],
      "name": "receiveDonation",
      "outputs": [],
      "payable": true,
      "stateMutability": "payable",
      "type": "function"
    }
  ],
  "bytecode": "0x608060405234801561001057600080fd5b5061016f806100206000396000f300608060405260043610610057576000357c0100000000000000000000000000000000000000000000000000000000900463ffffffff168063242fc36e1461005c57806345d3292b1461008757806383a6deb514610091575b600080fd5b34801561006857600080fd5b506100716100bc565b6040518082815260200191505060405180910390f35b61008f6100c2565b005b34801561009d57600080fd5b506100a66100d4565b6040518082815260200191505060405180910390f35b60015481565b6100cb346100da565b34600081905550565b60005481565b3373ffffffffffffffffffffffffffffffffffffffff166108fc60028381151561010057fe5b049081150290604051600060405180830381858888f1935050505015801561012c573d6000803e3d6000fd5b5060028181151561013957fe5b04600181905550505600a165627a7a72305820d4ecf197dfda502d58a843d3ad385780926993eb43eccc1bec8a39fdd82c939c0029",
  "source": "pragma solidity >=0.4.22 <0.6.0;\n\ncontract HalfMoneyCashback {\n\n\tuint public received;\n\tuint public cashback;\n\n    // initiates a contract to receive donation\n\tfunction receiveDonation() public payable {\n\t\tdonateBackHalf(msg.value);\n\t\treceived = msg.value;\n\t}\n    \n\t// initiate a return of hald the donation received\n\tfunction donateBackHalf(uint amount) private {\n\t\tmsg.sender.transfer(amount/2);\n\t\tcashback = amount/2;\n\t}\n    \n}",
  "sourcePath": "/Users/allen/Projects/dapps/SmartContractTruffle/contracts/HalfMoneyCashback.sol",
  "compiler": {
    "name": "solc",
    "version": "0.4.24+commit.e67f0147.Emscripten.clang"
  },
  "schemaVersion": "2.0.1",
  "updatedAt": "2018-12-12T22:18:12.632Z"
}