{
  "contractName": "ShoppingSmartContract",
  "abi": [
    {
      "constant": true,
      "inputs": [
        {
          "name": "",
          "type": "address"
        },
        {
          "name": "",
          "type": "uint256"
        }
      ],
      "name": "productSold",
      "outputs": [
        {
          "name": "",
          "type": "bytes32"
        }
      ],
      "payable": false,
      "stateMutability": "view",
      "type": "function"
    },
    {
      "constant": true,
      "inputs": [
        {
          "name": "",
          "type": "address"
        }
      ],
      "name": "sellers",
      "outputs": [
        {
          "name": "sellerAddress",
          "type": "address"
        },
        {
          "name": "whitelisted",
          "type": "bool"
        }
      ],
      "payable": false,
      "stateMutability": "view",
      "type": "function"
    },
    {
      "constant": true,
      "inputs": [
        {
          "name": "",
          "type": "bytes32"
        }
      ],
      "name": "products",
      "outputs": [
        {
          "name": "productId",
          "type": "bytes32"
        },
        {
          "name": "price",
          "type": "uint256"
        }
      ],
      "payable": false,
      "stateMutability": "view",
      "type": "function"
    },
    {
      "constant": true,
      "inputs": [],
      "name": "productCount",
      "outputs": [
        {
          "name": "",
          "type": "uint32"
        }
      ],
      "payable": false,
      "stateMutability": "view",
      "type": "function"
    },
    {
      "constant": true,
      "inputs": [],
      "name": "admin",
      "outputs": [
        {
          "name": "",
          "type": "address"
        }
      ],
      "payable": false,
      "stateMutability": "view",
      "type": "function"
    },
    {
      "inputs": [],
      "payable": false,
      "stateMutability": "nonpayable",
      "type": "constructor"
    },
    {
      "anonymous": false,
      "inputs": [
        {
          "indexed": false,
          "name": "status",
          "type": "bool"
        }
      ],
      "name": "buyCheckStatus",
      "type": "event"
    },
    {
      "constant": false,
      "inputs": [],
      "name": "addAsSeller",
      "outputs": [],
      "payable": false,
      "stateMutability": "nonpayable",
      "type": "function"
    },
    {
      "constant": false,
      "inputs": [
        {
          "name": "sellerId",
          "type": "address"
        }
      ],
      "name": "WhitelistAddress",
      "outputs": [],
      "payable": false,
      "stateMutability": "nonpayable",
      "type": "function"
    },
    {
      "constant": false,
      "inputs": [
        {
          "name": "_id",
          "type": "bytes32"
        },
        {
          "name": "_price",
          "type": "uint256"
        }
      ],
      "name": "AddProduct",
      "outputs": [],
      "payable": false,
      "stateMutability": "nonpayable",
      "type": "function"
    },
    {
      "constant": false,
      "inputs": [],
      "name": "GetContentCount",
      "outputs": [
        {
          "name": "",
          "type": "uint32"
        }
      ],
      "payable": false,
      "stateMutability": "nonpayable",
      "type": "function"
    },
    {
      "constant": false,
      "inputs": [
        {
          "name": "_id",
          "type": "bytes32"
        }
      ],
      "name": "BuyContent",
      "outputs": [],
      "payable": true,
      "stateMutability": "payable",
      "type": "function"
    },
    {
      "constant": false,
      "inputs": [
        {
          "name": "from",
          "type": "address"
        },
        {
          "name": "_id",
          "type": "bytes32"
        }
      ],
      "name": "BuyCheck",
      "outputs": [
        {
          "name": "status",
          "type": "bool"
        }
      ],
      "payable": false,
      "stateMutability": "nonpayable",
      "type": "function"
    }
  ],
  "bytecode": "0x608060405234801561001057600080fd5b5033600360006101000a81548173ffffffffffffffffffffffffffffffffffffffff021916908373ffffffffffffffffffffffffffffffffffffffff160217905550611490806100616000396000f3006080604052600436106100af576000357c0100000000000000000000000000000000000000000000000000000000900463ffffffff16806318d42c3e146100b457806328912c0b146100f757806331d3fc9a14610160578063321cbcfc146101c95780636d47ab7214610200578063790543911461028e5780637d8bc34b146102e25780639d75dddd14610306578063bcaf9cf914610341578063e0f6ef8714610358578063f851a4401461038f575b600080fd5b3480156100c057600080fd5b506100f5600480360381019080803573ffffffffffffffffffffffffffffffffffffffff1690602001909291905050506103e6565b005b34801561010357600080fd5b50610142600480360381019080803573ffffffffffffffffffffffffffffffffffffffff1690602001909291908035906020019092919050505061075f565b60405180826000191660001916815260200191505060405180910390f35b34801561016c57600080fd5b506101af600480360381019080803573ffffffffffffffffffffffffffffffffffffffff169060200190929190803560001916906020019092919050505061078f565b604051808215151515815260200191505060405180910390f35b3480156101d557600080fd5b506101de610ad8565b604051808263ffffffff1663ffffffff16815260200191505060405180910390f35b34801561020c57600080fd5b50610241600480360381019080803573ffffffffffffffffffffffffffffffffffffffff169060200190929190505050610af2565b604051808373ffffffffffffffffffffffffffffffffffffffff1673ffffffffffffffffffffffffffffffffffffffff168152602001821515151581526020019250505060405180910390f35b34801561029a57600080fd5b506102bd6004803603810190808035600019169060200190929190505050610b43565b6040518083600019166000191681526020018281526020019250505060405180910390f35b6103046004803603810190808035600019169060200190929190505050610b67565b005b34801561031257600080fd5b5061033f600480360381019080803560001916906020019092919080359060200190929190505050610dc6565b005b34801561034d57600080fd5b5061035661111c565b005b34801561036457600080fd5b5061036d611359565b604051808263ffffffff1663ffffffff16815260200191505060405180910390f35b34801561039b57600080fd5b506103a461136f565b604051808273ffffffffffffffffffffffffffffffffffffffff1673ffffffffffffffffffffffffffffffffffffffff16815260200191505060405180910390f35b600360009054906101000a900473ffffffffffffffffffffffffffffffffffffffff1673ffffffffffffffffffffffffffffffffffffffff163373ffffffffffffffffffffffffffffffffffffffff161415156104ab576040517f08c379a00000000000000000000000000000000000000000000000000000000081526004018080602001828103825260158152602001807f41646d696e20616363657373207265717569726564000000000000000000000081525060200191505060405180910390fd5b3373ffffffffffffffffffffffffffffffffffffffff166000808373ffffffffffffffffffffffffffffffffffffffff1673ffffffffffffffffffffffffffffffffffffffff16815260200190815260200160002060000160009054906101000a900473ffffffffffffffffffffffffffffffffffffffff1673ffffffffffffffffffffffffffffffffffffffff16141515156105d6576040517f08c379a000000000000000000000000000000000000000000000000000000000815260040180806020018281038252602d8152602001807f53656c6c657220776974682074686520676976656e206164647265737320646f81526020017f6573206e6f742065786973742e0000000000000000000000000000000000000081525060400191505060405180910390fd5b600073ffffffffffffffffffffffffffffffffffffffff166000808373ffffffffffffffffffffffffffffffffffffffff1673ffffffffffffffffffffffffffffffffffffffff16815260200190815260200160002060000160009054906101000a900473ffffffffffffffffffffffffffffffffffffffff1673ffffffffffffffffffffffffffffffffffffffff1614151515610702576040517f08c379a000000000000000000000000000000000000000000000000000000000815260040180806020018281038252602d8152602001807f53656c6c657220776974682074686520676976656e206164647265737320646f81526020017f6573206e6f742065786973742e0000000000000000000000000000000000000081525060400191505060405180910390fd5b60016000808373ffffffffffffffffffffffffffffffffffffffff1673ffffffffffffffffffffffffffffffffffffffff16815260200190815260200160002060020160006101000a81548160ff02191690831515021790555050565b60026020528160005260406000208181548110151561077a57fe5b90600052602060002001600091509150505481565b600080600360009054906101000a900473ffffffffffffffffffffffffffffffffffffffff1673ffffffffffffffffffffffffffffffffffffffff163373ffffffffffffffffffffffffffffffffffffffff16141515610857576040517f08c379a00000000000000000000000000000000000000000000000000000000081526004018080602001828103825260158152602001807f41646d696e20616363657373207265717569726564000000000000000000000081525060200191505060405180910390fd5b60007f0100000000000000000000000000000000000000000000000000000000000000026001600085600019166000191681526020019081526020016000206000015460006020811015156108a857fe5b1a7f0100000000000000000000000000000000000000000000000000000000000000027effffffffffffffffffffffffffffffffffffffffffffffffffffffffffffff191614151515610989576040517f08c379a00000000000000000000000000000000000000000000000000000000081526004018080602001828103825260258152602001807f50726f64756374207769746820676976656e20696420646f6573206e6f74206581526020017f786973742e00000000000000000000000000000000000000000000000000000081525060400191505060405180910390fd5b600090505b600260008573ffffffffffffffffffffffffffffffffffffffff1673ffffffffffffffffffffffffffffffffffffffff16815260200190815260200160002080549050811015610a90578260001916600260008673ffffffffffffffffffffffffffffffffffffffff1673ffffffffffffffffffffffffffffffffffffffff16815260200190815260200160002082815481101515610a2957fe5b9060005260206000200154600019161415610a83577f674ab2b9ea01e71703e98836f078591faebbdd719c24b23e86bb4a9aeb91eea76001604051808215151515815260200191505060405180910390a160019150610ad1565b808060010191505061098e565b7f674ab2b9ea01e71703e98836f078591faebbdd719c24b23e86bb4a9aeb91eea76000604051808215151515815260200191505060405180910390a1600091505b5092915050565b6000600360149054906101000a900463ffffffff16905090565b60006020528060005260406000206000915090508060000160009054906101000a900473ffffffffffffffffffffffffffffffffffffffff16908060020160009054906101000a900460ff16905082565b60016020528060005260406000206000915090508060000154908060010154905082565b60007f010000000000000000000000000000000000000000000000000000000000000002600160008360001916600019168152602001908152602001600020600001546000602081101515610bb857fe5b1a7f0100000000000000000000000000000000000000000000000000000000000000027effffffffffffffffffffffffffffffffffffffffffffffffffffffffffffff191614151515610c99576040517f08c379a00000000000000000000000000000000000000000000000000000000081526004018080602001828103825260258152602001807f50726f64756374207769746820676976656e20696420646f6573206e6f74206581526020017f786973742e00000000000000000000000000000000000000000000000000000081525060400191505060405180910390fd5b3460016000836000191660001916815260200190815260200160002060010154141515610d54576040517f08c379a000000000000000000000000000000000000000000000000000000000815260040180806020018281038252602d8152602001807f50726f6475637420707269636520646f6573206e6f74206d617463682077697481526020017f6820706169642076616c75652e0000000000000000000000000000000000000081525060400191505060405180910390fd5b600260003373ffffffffffffffffffffffffffffffffffffffff1673ffffffffffffffffffffffffffffffffffffffff16815260200190815260200160002081908060018154018082558091505090600182039060005260206000200160009091929091909150906000191690555050565b610dce611395565b600073ffffffffffffffffffffffffffffffffffffffff166000803373ffffffffffffffffffffffffffffffffffffffff1673ffffffffffffffffffffffffffffffffffffffff16815260200190815260200160002060000160009054906101000a900473ffffffffffffffffffffffffffffffffffffffff1673ffffffffffffffffffffffffffffffffffffffff1614151515610ed4576040517f08c379a00000000000000000000000000000000000000000000000000000000081526004018080602001828103825260158152602001807f53656c6c657220646f6573206e6f74206578697374000000000000000000000081525060200191505060405180910390fd5b600115156000803373ffffffffffffffffffffffffffffffffffffffff1673ffffffffffffffffffffffffffffffffffffffff16815260200190815260200160002060020160009054906101000a900460ff161515141515610fc4576040517f08c379a00000000000000000000000000000000000000000000000000000000081526004018080602001828103825260288152602001807f4f6e6c792077686974656c69737465642053656c6c65722063616e206164642081526020017f70726f647563747300000000000000000000000000000000000000000000000081525060400191505060405180910390fd5b8260001916600160008560001916600019168152602001908152602001600020600001546000191614151515611088576040517f08c379a00000000000000000000000000000000000000000000000000000000081526004018080602001828103825260288152602001807f50726f6475637420776974682074686520676976656e20696420616c7265616481526020017f792065786973742e00000000000000000000000000000000000000000000000081525060400191505060405180910390fd5b6040805190810160405280846000191681526020018381525090508060016000856000191660001916815260200190815260200160002060008201518160000190600019169055602082015181600101559050506003601481819054906101000a900463ffffffff168092919060010191906101000a81548163ffffffff021916908363ffffffff16021790555050505050565b6111246113b2565b3373ffffffffffffffffffffffffffffffffffffffff166000803373ffffffffffffffffffffffffffffffffffffffff1673ffffffffffffffffffffffffffffffffffffffff16815260200190815260200160002060000160009054906101000a900473ffffffffffffffffffffffffffffffffffffffff1673ffffffffffffffffffffffffffffffffffffffff1614151515611229576040517f08c379a00000000000000000000000000000000000000000000000000000000081526004018080602001828103825260188152602001807f416c72656164792061646465642061732073656c6c65722e000000000000000081525060200191505060405180910390fd5b6060604051908101604052803373ffffffffffffffffffffffffffffffffffffffff16815260200160006040519080825280602002602001820160405280156112815781602001602082028038833980820191505090505b508152602001600015158152509050806000803373ffffffffffffffffffffffffffffffffffffffff1673ffffffffffffffffffffffffffffffffffffffff16815260200190815260200160002060008201518160000160006101000a81548173ffffffffffffffffffffffffffffffffffffffff021916908373ffffffffffffffffffffffffffffffffffffffff16021790555060208201518160010190805190602001906113329291906113ec565b5060408201518160020160006101000a81548160ff02191690831515021790555090505050565b600360149054906101000a900463ffffffff1681565b600360009054906101000a900473ffffffffffffffffffffffffffffffffffffffff1681565b604080519081016040528060008019168152602001600081525090565b606060405190810160405280600073ffffffffffffffffffffffffffffffffffffffff168152602001606081526020016000151581525090565b82805482825590600052602060002090810192821561142e579160200282015b8281111561142d57825182906000191690559160200191906001019061140c565b5b50905061143b919061143f565b5090565b61146191905b8082111561145d576000816000905550600101611445565b5090565b905600a165627a7a723058200671e9a1101b5d00e291c6c3e26055a23d95740d53219667ef5d68fdb376b2470029",
  "source": "pragma solidity >=0.4.22 <0.6.0;\n\ncontract ShoppingSmartContract {\n    \n    // struct to hold various kind of data for seller\n\tstruct Seller {\n\t\taddress sellerAddress;\n\t\tbytes32[] productsData;\n\t\tbool whitelisted;\n\t}\n    \n    // struct to hold product related data\n\tstruct Product {\n\t\tbytes32 productId;\n\t\tuint256 price;\n\t}\n\n\tevent buyCheckStatus(bool status);\n    \n\tmapping(address => Seller) public sellers; // sellers mapping\n\tmapping(bytes32 => Product) public products; // products mapping\n\t// \tmapping(address => bytes32) productSold; // sold history mapping\n\tmapping(address => bytes32[]) public productSold; // sold history mapping\n\taddress  public admin;\n\tuint32 public productCount;\n\n\t// modifier to check if its an admin account\n\tmodifier onlyAdmin() {\n\t\trequire(msg.sender == admin, \"Admin access required\");\n\t\t_;\n\t}\n\n\t// modifier to check if the account is whitelisted seller\n\tmodifier onlyWhitelistedSeller() {\n\t\trequire(sellers[msg.sender].sellerAddress != address(0), \"Seller does not exist\");\n\t\trequire(sellers[msg.sender].whitelisted == true, \"Only whitelisted Seller can add products\");\n\t\t_;\n\t}\n    \n    // make creator of contract as admin\n\tconstructor() public {\n\t\tadmin = msg.sender;\n\t}\n\n\t// public visible function to register yourself as seller\n\tfunction addAsSeller() public {\n\t\t// check if seller already registered\n\t\trequire(sellers[msg.sender].sellerAddress != msg.sender, \"Already added as seller.\");\n\n\t\tSeller memory seller = Seller(msg.sender, new bytes32[](0), false);\n\t\tsellers[msg.sender] = seller;\n\t}\n\n\t// only admin can call this function to whitelist a seller address\n\tfunction WhitelistAddress(address sellerId) public onlyAdmin {\n\t\trequire(sellers[sellerId].sellerAddress != msg.sender, \"Seller with the given address does not exist.\");\n\t\trequire(sellers[sellerId].sellerAddress != address(0), \"Seller with the given address does not exist.\");\n\n\t\tsellers[sellerId].whitelisted = true;\n\t}\n\n\t// only a registered whitelisted seller can add products\n\tfunction AddProduct(bytes32 _id, uint256 _price) public onlyWhitelistedSeller {\n\t\t// check if product already added\n\t\trequire(products[_id].productId != _id, \"Product with the given id already exist.\");\n\n\t\tProduct memory prod = Product(_id, _price);\n\t\tproducts[_id] = prod;\n// \t\tSeller memory seller = sellers[msg.sender];\n// \t\tseller.productsData.push(prod);\n\t\tproductCount++;\n\t}\n\n\t// retreive number of products added\n\tfunction GetContentCount() public returns (uint32) {\n\t\treturn productCount;\n\t}\n\n\t// buy a product by its id and paying its exact price\n\tfunction BuyContent(bytes32 _id) public payable {\n\t\trequire(products[_id].productId[0]!=0, \"Product with given id does not exist.\");\n\t\trequire(products[_id].price==msg.value, \"Product price does not match with paid value.\");\n\n// \t\tproductSold[msg.sender] = _id;\n\t\tproductSold[msg.sender].push(_id);\n\t\t\n\t}\n\n\t// check if an address has bought any product or not\n\tfunction BuyCheck(address from, bytes32 _id) public onlyAdmin returns (bool status) {\n// \t\treturn productSold[from] == _id;\n\n\t\trequire(products[_id].productId[0]!=0, \"Product with given id does not exist.\");\n\n\t\tfor (uint i = 0; i < productSold[from].length; i++) {\n\t\t\tif(productSold[from][i] == _id) {\n\t\t\t\temit buyCheckStatus(true);\n\t\t\t\treturn true;\n\t\t\t}\n\t\t}\n        \n\t\temit buyCheckStatus(false);\n\t\treturn false;\n\t}\n\n}",
  "sourcePath": "/Users/allen/Projects/dapps/SmartContractTruffle/contracts/ShoppingSmartContract.sol",
  "compiler": {
    "name": "solc",
    "version": "0.4.24+commit.e67f0147.Emscripten.clang"
  },
  "schemaVersion": "2.0.1",
  "updatedAt": "2018-12-12T22:18:12.799Z"
}